{"abi":[{"type":"constructor","inputs":[],"stateMutability":"nonpayable"},{"type":"function","name":"allowance","inputs":[{"name":"owner","type":"address","internalType":"address"},{"name":"spender","type":"address","internalType":"address"}],"outputs":[{"name":"","type":"uint256","internalType":"uint256"}],"stateMutability":"view"},{"type":"function","name":"approve","inputs":[{"name":"spender","type":"address","internalType":"address"},{"name":"value","type":"uint256","internalType":"uint256"}],"outputs":[{"name":"","type":"bool","internalType":"bool"}],"stateMutability":"nonpayable"},{"type":"function","name":"asset","inputs":[],"outputs":[{"name":"","type":"address","internalType":"address"}],"stateMutability":"view"},{"type":"function","name":"balanceOf","inputs":[{"name":"account","type":"address","internalType":"address"}],"outputs":[{"name":"","type":"uint256","internalType":"uint256"}],"stateMutability":"view"},{"type":"function","name":"bufferBps","inputs":[],"outputs":[{"name":"","type":"uint16","internalType":"uint16"}],"stateMutability":"view"},{"type":"function","name":"convertToAssets","inputs":[{"name":"shares","type":"uint256","internalType":"uint256"}],"outputs":[{"name":"","type":"uint256","internalType":"uint256"}],"stateMutability":"view"},{"type":"function","name":"convertToShares","inputs":[{"name":"assets","type":"uint256","internalType":"uint256"}],"outputs":[{"name":"","type":"uint256","internalType":"uint256"}],"stateMutability":"view"},{"type":"function","name":"decimals","inputs":[],"outputs":[{"name":"","type":"uint8","internalType":"uint8"}],"stateMutability":"view"},{"type":"function","name":"deposit","inputs":[{"name":"assets_","type":"uint256","internalType":"uint256"},{"name":"receiver","type":"address","internalType":"address"}],"outputs":[{"name":"shares","type":"uint256","internalType":"uint256"}],"stateMutability":"nonpayable"},{"type":"function","name":"feeCollector","inputs":[],"outputs":[{"name":"","type":"address","internalType":"address"}],"stateMutability":"view"},{"type":"function","name":"feeConfig","inputs":[],"outputs":[{"name":"config","type":"tuple","internalType":"struct IFund.FeeConfig","components":[{"name":"mgmtFeeBps","type":"uint16","internalType":"uint16"},{"name":"perfFeeBps","type":"uint16","internalType":"uint16"},{"name":"managerFeeRecipient","type":"address","internalType":"address"}]}],"stateMutability":"view"},{"type":"function","name":"fundType","inputs":[],"outputs":[{"name":"","type":"uint8","internalType":"enum IFund.FundType"}],"stateMutability":"view"},{"type":"function","name":"initialize","inputs":[{"name":"asset_","type":"address","internalType":"address"},{"name":"manager_","type":"address","internalType":"address"},{"name":"fundType_","type":"uint8","internalType":"enum IFund.FundType"},{"name":"bufferBps_","type":"uint16","internalType":"uint16"},{"name":"feeConfig_","type":"tuple","internalType":"struct IFund.FeeConfig","components":[{"name":"mgmtFeeBps","type":"uint16","internalType":"uint16"},{"name":"perfFeeBps","type":"uint16","internalType":"uint16"},{"name":"managerFeeRecipient","type":"address","internalType":"address"}]},{"name":"feeCollector_","type":"address","internalType":"address"},{"name":"withdrawalQueue_","type":"address","internalType":"address"}],"outputs":[],"stateMutability":"nonpayable"},{"type":"function","name":"initialized","inputs":[],"outputs":[{"name":"","type":"bool","internalType":"bool"}],"stateMutability":"view"},{"type":"function","name":"manager","inputs":[],"outputs":[{"name":"","type":"address","internalType":"address"}],"stateMutability":"view"},{"type":"function","name":"mintFeeShares","inputs":[{"name":"to","type":"address","internalType":"address"},{"name":"shares","type":"uint256","internalType":"uint256"}],"outputs":[{"name":"minted","type":"uint256","internalType":"uint256"}],"stateMutability":"nonpayable"},{"type":"function","name":"name","inputs":[],"outputs":[{"name":"","type":"string","internalType":"string"}],"stateMutability":"view"},{"type":"function","name":"processWithdrawals","inputs":[{"name":"maxToProcess","type":"uint256","internalType":"uint256"}],"outputs":[],"stateMutability":"nonpayable"},{"type":"function","name":"requestWithdraw","inputs":[{"name":"shares","type":"uint256","internalType":"uint256"},{"name":"receiver","type":"address","internalType":"address"},{"name":"owner_","type":"address","internalType":"address"}],"outputs":[{"name":"requestId","type":"uint256","internalType":"uint256"}],"stateMutability":"nonpayable"},{"type":"function","name":"riskScore","inputs":[],"outputs":[{"name":"","type":"uint32","internalType":"uint32"}],"stateMutability":"view"},{"type":"function","name":"riskTier","inputs":[],"outputs":[{"name":"","type":"uint8","internalType":"uint8"}],"stateMutability":"view"},{"type":"function","name":"setBufferBps","inputs":[{"name":"newBps","type":"uint16","internalType":"uint16"}],"outputs":[],"stateMutability":"nonpayable"},{"type":"function","name":"setRisk","inputs":[{"name":"tier","type":"uint8","internalType":"uint8"},{"name":"score","type":"uint32","internalType":"uint32"}],"outputs":[],"stateMutability":"nonpayable"},{"type":"function","name":"symbol","inputs":[],"outputs":[{"name":"","type":"string","internalType":"string"}],"stateMutability":"view"},{"type":"function","name":"totalAssets","inputs":[],"outputs":[{"name":"","type":"uint256","internalType":"uint256"}],"stateMutability":"view"},{"type":"function","name":"totalSupply","inputs":[],"outputs":[{"name":"","type":"uint256","internalType":"uint256"}],"stateMutability":"view"},{"type":"function","name":"transfer","inputs":[{"name":"to","type":"address","internalType":"address"},{"name":"value","type":"uint256","internalType":"uint256"}],"outputs":[{"name":"","type":"bool","internalType":"bool"}],"stateMutability":"nonpayable"},{"type":"function","name":"transferFrom","inputs":[{"name":"from","type":"address","internalType":"address"},{"name":"to","type":"address","internalType":"address"},{"name":"value","type":"uint256","internalType":"uint256"}],"outputs":[{"name":"","type":"bool","internalType":"bool"}],"stateMutability":"nonpayable"},{"type":"function","name":"withdrawalQueue","inputs":[],"outputs":[{"name":"","type":"address","internalType":"address"}],"stateMutability":"view"},{"type":"event","name":"Approval","inputs":[{"name":"owner","type":"address","indexed":true,"internalType":"address"},{"name":"spender","type":"address","indexed":true,"internalType":"address"},{"name":"value","type":"uint256","indexed":false,"internalType":"uint256"}],"anonymous":false},{"type":"event","name":"Transfer","inputs":[{"name":"from","type":"address","indexed":true,"internalType":"address"},{"name":"to","type":"address","indexed":true,"internalType":"address"},{"name":"value","type":"uint256","indexed":false,"internalType":"uint256"}],"anonymous":false},{"type":"error","name":"AlreadyInitialized","inputs":[]},{"type":"error","name":"ERC20InsufficientAllowance","inputs":[{"name":"spender","type":"address","internalType":"address"},{"name":"allowance","type":"uint256","internalType":"uint256"},{"name":"needed","type":"uint256","internalType":"uint256"}]},{"type":"error","name":"ERC20InsufficientBalance","inputs":[{"name":"sender","type":"address","internalType":"address"},{"name":"balance","type":"uint256","internalType":"uint256"},{"name":"needed","type":"uint256","internalType":"uint256"}]},{"type":"error","name":"ERC20InvalidApprover","inputs":[{"name":"approver","type":"address","internalType":"address"}]},{"type":"error","name":"ERC20InvalidReceiver","inputs":[{"name":"receiver","type":"address","internalType":"address"}]},{"type":"error","name":"ERC20InvalidSender","inputs":[{"name":"sender","type":"address","internalType":"address"}]},{"type":"error","name":"ERC20InvalidSpender","inputs":[{"name":"spender","type":"address","internalType":"address"}]},{"type":"error","name":"InsufficientShares","inputs":[]},{"type":"error","name":"InvalidBps","inputs":[]},{"type":"error","name":"InvalidFeeRecipient","inputs":[]},{"type":"error","name":"NotFeeCollector","inputs":[]},{"type":"error","name":"NotInitialized","inputs":[]},{"type":"error","name":"NotManager","inputs":[]},{"type":"error","name":"ReentrancyGuardReentrantCall","inputs":[]},{"type":"error","name":"TransferFailed","inputs":[]},{"type":"error","name":"ZeroAddress","inputs":[]},{"type":"error","name":"ZeroAmount","inputs":[]}],"bytecode":{"object":"0x60806040523461034157604080519081016001600160401b03811182821017610254576040908152601282527144617267656e742046756e6420536861726560701b602083015280519081016001600160401b03811182821017610254576040526005815264191195539160da1b602082015281516001600160401b03811161025457600354600181811c91168015610337575b602082101461023657601f81116102d4575b50602092601f821160011461027357928192935f92610268575b50508160011b915f199060031b1c1916176003555b80516001600160401b03811161025457600454600181811c9116801561024a575b602082101461023657601f81116101d3575b50602091601f8211600114610173579181925f92610168575b50508160011b915f199060031b1c1916176004555b60017f9b779b17422d0df92223018b32b4d1fa46e071723d6817e2486d003becc55f00556040516118ef90816103468239f35b015190505f80610120565b601f1982169260045f52805f20915f5b8581106101bb575083600195106101a3575b505050811b01600455610135565b01515f1960f88460031b161c191690555f8080610195565b91926020600181928685015181550194019201610183565b60045f527f8a35acfbc15ff81a39ae7d344fd709f28e8600b4aa8c65c6b64bfe7fe36bd19b601f830160051c8101916020841061022c575b601f0160051c01905b8181106102215750610107565b5f8155600101610214565b909150819061020b565b634e487b7160e01b5f52602260045260245ffd5b90607f16906100f5565b634e487b7160e01b5f52604160045260245ffd5b015190505f806100bf565b601f1982169360035f52805f20915f5b8681106102bc57508360019596106102a4575b505050811b016003556100d4565b01515f1960f88460031b161c191690555f8080610296565b91926020600181928685015181550194019201610283565b60035f527fc2575a0e9e593c00f959f8c92f12db2869c3395a3b0502d05e2516446f71f85b601f830160051c8101916020841061032d575b601f0160051c01905b81811061032257506100a5565b5f8155600101610315565b909150819061030c565b90607f1690610093565b5f80fdfe60806040526004361015610011575f80fd5b5f5f3560e01c806301e1d1141461137557806306fdde031461128157806307a2d13a14611258578063095ea7b314611232578063152fcb0c14610fe6578063158ef93e14610fc457806318160ddd14610fa75780631e5eb1d014610f265780631fa9840614610ee657806323b872dd14610e075780632669299014610d845780633090e59e14610d61578063313ce56714610d4657806332f25a3a14610b2a57806337d5fe9914610b0257806338d52e0f14610ad6578063481c6a7514610aae5780634a3a418d14610a5a5780636e553f651461078e57806370a082311461075657806395d89b411461064d578063a9059cbb1461061b578063bfd02991146105f4578063c37b6337146105cf578063c415b95c146105a6578063c6e6f59214610565578063dd62ed3e14610512578063e0ae0c94146101ff5763e753b6d114610159575f80fd5b346101fc5760403660031901126101fc5760043560ff811681036101fa5760243563ffffffff811681036101f65760ff60055416156101e7576006546001600160a01b031633036101d8576009805464ffffffffff60a01b191660a09390931b60ff60a01b169290921760a89190911b63ffffffff60a81b1617905580f35b63607e454560e11b8352600483fd5b6321c4e35760e21b8352600483fd5b8280fd5b505b80fd5b50346101fc576101203660031901126101fc5761021a6113b9565b6102226113cf565b9060443591600283101561050e576064359061ffff82169384830361050a57606036608319011261050a5760e4356001600160a01b038116939084900361050657610104356001600160a01b0381169590869003610502576005549060ff82166104f4576001600160a01b03811697881580156104e3575b80156104db575b80156104d3575b80156104bb575b6104ac57612710106104875761271061ffff6102c96116c8565b16118015610496575b61048757610100600160a81b031990911660089190911b610100600160a81b0316176005556006805460a09390931b60ff60a01b166001600160b81b03199093166001600160a01b03909416939093179190911760a89190911b61ffff60a81b1617905583926020929091604491906103496116c8565b6103516116d9565b63ffff000061035e6116b2565b9261ffff6040519161036f83611455565b169081815261ffff84168a820152604060018060a01b03861691015260075493640100000000600160c01b03908a1b169367ffffffffffffffff60c01b16179160101b1617176007556bffffffffffffffffffffffff60a01b6009541617600955806bffffffffffffffffffffffff60a01b6008541617600855604051948593849263095ea7b360e01b845260048401525f1960248401525af190811561047c57829161044d575b501561043e576009805464ffffffffff60a01b191690556005805460ff1916600117905580f35b6312171d8360e31b8152600490fd5b61046f915060203d602011610475575b6104678183611485565b810190611667565b5f610417565b503d61045d565b6040513d84823e3d90fd5b63c6cc5d7f60e01b8952600489fd5b5061271061ffff6104a56116d9565b16116102d2565b63d92e233d60e01b8a5260048afd5b506001600160a01b036104cc6116b2565b16156102af565b5087156102a8565b5086156102a1565b506001600160a01b0386161561029a565b62dc149f60e41b8952600489fd5b8780fd5b8680fd5b8580fd5b8380fd5b50346101fc5760403660031901126101fc57604061052e6113b9565b916105376113cf565b9260018060a01b031681526001602052209060018060a01b03165f52602052602060405f2054604051908152f35b50346101fc5760203660031901126101fc5760ff600554161561059757602061058f60043561167f565b604051908152f35b6321c4e35760e21b8152600490fd5b50346101fc57806003193601126101fc576009546040516001600160a01b039091168152602090f35b50346101fc57806003193601126101fc57602061ffff60065460a81c16604051908152f35b50346101fc57806003193601126101fc57602063ffffffff60095460a81c16604051908152f35b50346101fc5760403660031901126101fc576106426106386113b9565b6024359033611722565b602060405160018152f35b50346101fc57806003193601126101fc576040519080600454908160011c9160018116801561074c575b6020841081146107385783865290811561071157506001146106b4575b6106b0846106a481860382611485565b6040519182918261138f565b0390f35b600481527f8a35acfbc15ff81a39ae7d344fd709f28e8600b4aa8c65c6b64bfe7fe36bd19b939250905b8082106106f7575090915081016020016106a482610694565b9192600181602092548385880101520191019092916106de565b60ff191660208087019190915292151560051b850190920192506106a49150839050610694565b634e487b7160e01b83526022600452602483fd5b92607f1692610677565b50346101fc5760203660031901126101fc576020906040906001600160a01b0361077e6113b9565b1681528083522054604051908152f35b3461097a57604036600319011261097a576004356107aa6113cf565b6107b26116ea565b60ff6005541615610a4b5781156109de576001600160a01b03811615610a3c57600954604051636680ac0b60e01b815230600482015290606090829060249082905f906001600160a01b03165af1801561096f57610a0d575b506108146113e5565b916002548381158015610a05575b156109ed57505080925b83156109de576005546040516323b872dd60e01b81523360048201523060248201526044810184905290602090829060649082905f9060081c6001600160a01b03165af190811561096f575f916109bf575b50156109b05761089184610896946117cc565b611829565b906127106108af6006549361ffff8560a81c16906114b6565b046024602060018060a01b0360055460081c16604051928380926370a0823160e01b82523060048301525afa90811561096f575f9161097e575b5081811161090e575b60208360015f51602061189a5f395f51905f5255604051908152f35b906109189161153b565b6001600160a01b0390921691823b1561097a575f926024849260405195869384926390ca796b60e01b845260048401525af191821561096f5760209261095f575b806108f2565b5f61096991611485565b5f610959565b6040513d5f823e3d90fd5b5f80fd5b90506020813d6020116109a8575b8161099960209383611485565b8101031261097a5751846108e9565b3d915061098c565b6312171d8360e31b5f5260045ffd5b6109d8915060203d602011610475576104678183611485565b8561087e565b631f2a200560e01b5f5260045ffd5b6109fa6109ff92846114b6565b6114dd565b9261082c565b508015610822565b610a2e9060603d606011610a35575b610a268183611485565b810190611520565b505061080b565b503d610a1c565b63d92e233d60e01b5f5260045ffd5b6321c4e35760e21b5f5260045ffd5b3461097a57604036600319011261097a57610a736113b9565b60ff6005541615610a4b576009546001600160a01b03163303610a9f5761058f60209160243590611557565b6339fe69ff60e11b5f5260045ffd5b3461097a575f36600319011261097a576006546040516001600160a01b039091168152602090f35b3461097a575f36600319011261097a5760055460405160089190911c6001600160a01b03168152602090f35b3461097a575f36600319011261097a576008546040516001600160a01b039091168152602090f35b3461097a57606036600319011261097a57600435610b466113cf565b6044356001600160a01b03811692909183830361097a5760ff6005541615610a4b578115610d10576001600160a01b03169182158015610d3e575b610a3c57600954604051636680ac0b60e01b815230600482015290606090829060249082905f906001600160a01b03165af1801561096f57610d1f575b50833303610cd4575b508215610cc157825f525f60205260405f2054818110610ca8578160209392608492865f525f86520360405f205580600254036002555f857fddf252ad1be2c89b69c2b068fc378daa952ba7f163c4a11628f55a4df523b3ef86604051858152a35f60018060a01b036008541660405196879586946322cd3fb760e21b86523060048701526024860152604485015260648401525af1801561096f575f90610c75575b602090604051908152f35b506020813d602011610ca0575b81610c8f60209383611485565b8101031261097a5760209051610c6a565b3d9150610c82565b8363391434e360e21b5f5260045260245260445260645ffd5b634b637e8f60e11b5f525f60045260245ffd5b5f84815260016020908152604080832033845290915290205490828210610d1057610d0283610d0a9361153b565b903390611836565b83610bc7565b633999656760e01b5f5260045ffd5b610d379060603d606011610a3557610a268183611485565b5050610bbe565b508315610b81565b3461097a575f36600319011261097a57602060405160128152f35b3461097a575f36600319011261097a57602060ff60095460a01c16604051908152f35b3461097a57602036600319011261097a5760043561ffff81169081810361097a5760ff6005541615610a4b57600654916001600160a01b0383163303610df85761271010610de95761ffff60a81b1990911660a89190911b61ffff60a81b1617600655005b63c6cc5d7f60e01b5f5260045ffd5b63607e454560e11b5f5260045ffd5b3461097a57606036600319011261097a57610e206113b9565b610e286113cf565b6001600160a01b0382165f818152600160209081526040808320338452909152902054909260443592915f198110610e66575b506106429350611722565b838110610ecb578415610eb8573315610ea557610642945f52600160205260405f2060018060a01b0333165f526020528360405f209103905584610e5b565b634a1406b160e11b5f525f60045260245ffd5b63e602df0560e01b5f525f60045260245ffd5b8390637dc7a0d960e11b5f523360045260245260445260645ffd5b3461097a575f36600319011261097a5760ff60065460a01c166040516002821015610f12576020918152f35b634e487b7160e01b5f52602160045260245ffd5b3461097a575f36600319011261097a575f60408051610f4481611455565b82815282602082015201526060604051610f5d81611455565b60075461ffff8082169283815260406020820191838560101c168352019260018060a01b039060201c1683526040519384525116602083015260018060a01b039051166040820152f35b3461097a575f36600319011261097a576020600254604051908152f35b3461097a575f36600319011261097a57602060ff600554166040519015158152f35b3461097a57602036600319011261097a5760ff6005541615610a4b5761100a6116ea565b600954604051636680ac0b60e01b815230600482015290606090829060249082905f906001600160a01b03165af1801561096f57611213575b50600854604080516302f75f5160e51b815230600482015291829060249082906001600160a01b03165afa90811561096f575f916111de575b506005546040516370a0823160e01b8152306004820152906020908290602490829060081c6001600160a01b03165afa90811561096f575f916111ac575b50818110611143575b50505f602060018060a01b0360085416604460405180948193637562b0cf60e01b835230600484015260043560248401525af1801561096f57611114575b60015f51602061189a5f395f51905f5255005b6111359060203d60201161113c575b61112d8183611485565b8101906114a7565b5080611101565b503d611123565b6111506020915f9361153b565b600654604051636f6c441f60e01b815260048101929092529092839160249183916001600160a01b03165af1801561096f5761118d575b806110c3565b6111a59060203d60201161113c5761112d8183611485565b5080611187565b90506020813d6020116111d6575b816111c760209383611485565b8101031261097a5751826110ba565b3d91506111ba565b90506040813d60401161120b575b816111f960409383611485565b8101031261097a57602001518161107c565b3d91506111ec565b61122b9060603d606011610a3557610a268183611485565b5050611043565b3461097a57604036600319011261097a5761064261124e6113b9565b6024359033611836565b3461097a57602036600319011261097a5760ff6005541615610a4b57602061058f6004356114fb565b3461097a575f36600319011261097a576040515f6003548060011c9060018116801561136b575b6020831081146113575782855290811561133357506001146112d5575b6106b0836106a481850382611485565b91905060035f527fc2575a0e9e593c00f959f8c92f12db2869c3395a3b0502d05e2516446f71f85b915f905b808210611319575090915081016020016106a46112c5565b919260018160209254838588010152019101909291611301565b60ff191660208086019190915291151560051b840190910191506106a490506112c5565b634e487b7160e01b5f52602260045260245ffd5b91607f16916112a8565b3461097a575f36600319011261097a57602061058f6113e5565b602060409281835280519182918282860152018484015e5f828201840152601f01601f1916010190565b600435906001600160a01b038216820361097a57565b602435906001600160a01b038216820361097a57565b60ff6005541615610a4b576006546040516278744560e21b815290602090829060049082906001600160a01b03165afa90811561096f575f91611426575090565b90506020813d60201161144d575b8161144160209383611485565b8101031261097a575190565b3d9150611434565b6060810190811067ffffffffffffffff82111761147157604052565b634e487b7160e01b5f52604160045260245ffd5b90601f8019910116810190811067ffffffffffffffff82111761147157604052565b9081602091031261097a575190565b818102929181159184041417156114c957565b634e487b7160e01b5f52601160045260245ffd5b81156114e7570490565b634e487b7160e01b5f52601260045260245ffd5b600254801561151c576109fa611519926115136113e5565b906114b6565b90565b5090565b9081606091031261097a578051916040602083015192015190565b919082039182116114c957565b519061ffff8216820361097a57565b6001600160a01b0381168015610a3c578215611660576009546040516307d3277f60e01b815290606090829060049082906001600160a01b03165afa90811561096f575f916115eb575b505160075460201c6001600160a01b0390811683141592911690826115e0575b50506115d15781611519916117cc565b630ed1b8b360e31b5f5260045ffd5b141590505f806115c1565b90506060813d606011611658575b8161160660609383611485565b8101031261097a576040519061161b82611455565b80516001600160a01b038116810361097a5761164d91604091845261164260208201611548565b602085015201611548565b60408201525f6115a1565b3d91506115f9565b5050505f90565b9081602091031261097a5751801515810361097a5790565b60025461168a6113e5565b90801580156116aa575b6116a5576109fa90611519936114b6565b505090565b508115611694565b60c4356001600160a01b038116810361097a5790565b60843561ffff8116810361097a5790565b60a43561ffff8116810361097a5790565b60025f51602061189a5f395f51905f5254146117135760025f51602061189a5f395f51905f5255565b633ee5aeb560e01b5f5260045ffd5b6001600160a01b0316908115610cc1576001600160a01b03169182156117b957815f525f60205260405f20548181106117a057817fddf252ad1be2c89b69c2b068fc378daa952ba7f163c4a11628f55a4df523b3ef92602092855f525f84520360405f2055845f525f825260405f20818154019055604051908152a3565b8263391434e360e21b5f5260045260245260445260645ffd5b63ec442f0560e01b5f525f60045260245ffd5b6001600160a01b03169081156117b9577fddf252ad1be2c89b69c2b068fc378daa952ba7f163c4a11628f55a4df523b3ef60208261180d5f94600254611829565b60025584845283825260408420818154019055604051908152a3565b919082018092116114c957565b6001600160a01b0316908115610eb8576001600160a01b0316918215610ea55760207f8c5be1e5ebec7d5bd14f71427d1e84f3dd0314c0f7b2291e5b200ac8c7c3b92591835f526001825260405f20855f5282528060405f2055604051908152a356fe9b779b17422d0df92223018b32b4d1fa46e071723d6817e2486d003becc55f00a26469706673582212202367047154dcc9808b62e6560cc794b3a968e4efb58ea8f5f408f2acf90004c064736f6c634300081e0033","linkReferences":{}},"methodIdentifiers":{"allowance(address,address)":"dd62ed3e","approve(address,uint256)":"095ea7b3","asset()":"38d52e0f","balanceOf(address)":"70a08231","bufferBps()":"c37b6337","convertToAssets(uint256)":"07a2d13a","convertToShares(uint256)":"c6e6f592","decimals()":"313ce567","deposit(uint256,address)":"6e553f65","feeCollector()":"c415b95c","feeConfig()":"1e5eb1d0","fundType()":"1fa98406","initialize(address,address,uint8,uint16,(uint16,uint16,address),address,address)":"e0ae0c94","initialized()":"158ef93e","manager()":"481c6a75","mintFeeShares(address,uint256)":"4a3a418d","name()":"06fdde03","processWithdrawals(uint256)":"152fcb0c","requestWithdraw(uint256,address,address)":"32f25a3a","riskScore()":"bfd02991","riskTier()":"3090e59e","setBufferBps(uint16)":"26692990","setRisk(uint8,uint32)":"e753b6d1","symbol()":"95d89b41","totalAssets()":"01e1d114","totalSupply()":"18160ddd","transfer(address,uint256)":"a9059cbb","transferFrom(address,address,uint256)":"23b872dd","withdrawalQueue()":"37d5fe99"},"id":33}