{"abi":[{"type":"constructor","inputs":[{"name":"governance_","type":"address","internalType":"address"}],"stateMutability":"nonpayable"},{"type":"function","name":"assetOf","inputs":[{"name":"fund","type":"address","internalType":"address"}],"outputs":[{"name":"","type":"address","internalType":"address"}],"stateMutability":"view"},{"type":"function","name":"createdAt","inputs":[{"name":"fund","type":"address","internalType":"address"}],"outputs":[{"name":"","type":"uint64","internalType":"uint64"}],"stateMutability":"view"},{"type":"function","name":"fundByManager","inputs":[{"name":"manager","type":"address","internalType":"address"}],"outputs":[{"name":"fund","type":"address","internalType":"address"}],"stateMutability":"view"},{"type":"function","name":"fundByOwnerAt","inputs":[{"name":"productOwner","type":"address","internalType":"address"},{"name":"index","type":"uint256","internalType":"uint256"}],"outputs":[{"name":"fund","type":"address","internalType":"address"}],"stateMutability":"view"},{"type":"function","name":"fundCountByOwner","inputs":[{"name":"productOwner","type":"address","internalType":"address"}],"outputs":[{"name":"","type":"uint256","internalType":"uint256"}],"stateMutability":"view"},{"type":"function","name":"fundType","inputs":[{"name":"fund","type":"address","internalType":"address"}],"outputs":[{"name":"","type":"uint8","internalType":"enum IProductRegistry.FundType"}],"stateMutability":"view"},{"type":"function","name":"fundsByOwner","inputs":[{"name":"productOwner","type":"address","internalType":"address"},{"name":"start","type":"uint256","internalType":"uint256"},{"name":"limit","type":"uint256","internalType":"uint256"}],"outputs":[{"name":"funds","type":"address[]","internalType":"address[]"}],"stateMutability":"view"},{"type":"function","name":"getProductInfo","inputs":[{"name":"fund","type":"address","internalType":"address"}],"outputs":[{"name":"","type":"tuple","internalType":"struct IProductRegistry.ProductInfo","components":[{"name":"status","type":"uint8","internalType":"enum IProductRegistry.Status"},{"name":"fundType","type":"uint8","internalType":"enum IProductRegistry.FundType"},{"name":"manager","type":"address","internalType":"address"},{"name":"asset","type":"address","internalType":"address"},{"name":"productOwner","type":"address","internalType":"address"},{"name":"metadataURI","type":"string","internalType":"string"},{"name":"createdAt","type":"uint64","internalType":"uint64"}]}],"stateMutability":"view"},{"type":"function","name":"governance","inputs":[],"outputs":[{"name":"","type":"address","internalType":"address"}],"stateMutability":"view"},{"type":"function","name":"isActive","inputs":[{"name":"fund","type":"address","internalType":"address"}],"outputs":[{"name":"","type":"bool","internalType":"bool"}],"stateMutability":"view"},{"type":"function","name":"isFactoryAllowed","inputs":[{"name":"factory","type":"address","internalType":"address"}],"outputs":[{"name":"","type":"bool","internalType":"bool"}],"stateMutability":"view"},{"type":"function","name":"isProduct","inputs":[{"name":"fund","type":"address","internalType":"address"}],"outputs":[{"name":"","type":"bool","internalType":"bool"}],"stateMutability":"view"},{"type":"function","name":"managerOf","inputs":[{"name":"fund","type":"address","internalType":"address"}],"outputs":[{"name":"","type":"address","internalType":"address"}],"stateMutability":"view"},{"type":"function","name":"metadataURI","inputs":[{"name":"fund","type":"address","internalType":"address"}],"outputs":[{"name":"","type":"string","internalType":"string"}],"stateMutability":"view"},{"type":"function","name":"ownerOf","inputs":[{"name":"fund","type":"address","internalType":"address"}],"outputs":[{"name":"","type":"address","internalType":"address"}],"stateMutability":"view"},{"type":"function","name":"ownerURI","inputs":[{"name":"productOwner","type":"address","internalType":"address"}],"outputs":[{"name":"","type":"string","internalType":"string"}],"stateMutability":"view"},{"type":"function","name":"registerProduct","inputs":[{"name":"fund","type":"address","internalType":"address"},{"name":"fundType_","type":"uint8","internalType":"enum IProductRegistry.FundType"},{"name":"manager","type":"address","internalType":"address"},{"name":"asset","type":"address","internalType":"address"},{"name":"productOwner","type":"address","internalType":"address"},{"name":"metadataURI_","type":"string","internalType":"string"}],"outputs":[],"stateMutability":"nonpayable"},{"type":"function","name":"setFactoryAllowed","inputs":[{"name":"factory","type":"address","internalType":"address"},{"name":"allowed","type":"bool","internalType":"bool"}],"outputs":[],"stateMutability":"nonpayable"},{"type":"function","name":"setMetadataURI","inputs":[{"name":"fund","type":"address","internalType":"address"},{"name":"newURI","type":"string","internalType":"string"}],"outputs":[],"stateMutability":"nonpayable"},{"type":"function","name":"setOwnerURI","inputs":[{"name":"productOwner","type":"address","internalType":"address"},{"name":"newURI","type":"string","internalType":"string"}],"outputs":[],"stateMutability":"nonpayable"},{"type":"function","name":"setStatus","inputs":[{"name":"fund","type":"address","internalType":"address"},{"name":"newStatus","type":"uint8","internalType":"enum IProductRegistry.Status"}],"outputs":[],"stateMutability":"nonpayable"},{"type":"function","name":"status","inputs":[{"name":"fund","type":"address","internalType":"address"}],"outputs":[{"name":"","type":"uint8","internalType":"enum IProductRegistry.Status"}],"stateMutability":"view"},{"type":"function","name":"transferGovernance","inputs":[{"name":"newGov","type":"address","internalType":"address"}],"outputs":[],"stateMutability":"nonpayable"},{"type":"event","name":"FactoryAllowedSet","inputs":[{"name":"factory","type":"address","indexed":true,"internalType":"address"},{"name":"allowed","type":"bool","indexed":false,"internalType":"bool"}],"anonymous":false},{"type":"event","name":"OwnerURISet","inputs":[{"name":"productOwner","type":"address","indexed":true,"internalType":"address"},{"name":"newURI","type":"string","indexed":false,"internalType":"string"}],"anonymous":false},{"type":"event","name":"ProductMetadataURISet","inputs":[{"name":"fund","type":"address","indexed":true,"internalType":"address"},{"name":"newURI","type":"string","indexed":false,"internalType":"string"}],"anonymous":false},{"type":"event","name":"ProductRegistered","inputs":[{"name":"fund","type":"address","indexed":true,"internalType":"address"},{"name":"manager","type":"address","indexed":true,"internalType":"address"},{"name":"asset","type":"address","indexed":true,"internalType":"address"},{"name":"productOwner","type":"address","indexed":false,"internalType":"address"},{"name":"fundType","type":"uint8","indexed":false,"internalType":"enum IProductRegistry.FundType"},{"name":"metadataURI","type":"string","indexed":false,"internalType":"string"}],"anonymous":false},{"type":"event","name":"ProductStatusSet","inputs":[{"name":"fund","type":"address","indexed":true,"internalType":"address"},{"name":"oldStatus","type":"uint8","indexed":false,"internalType":"enum IProductRegistry.Status"},{"name":"newStatus","type":"uint8","indexed":false,"internalType":"enum IProductRegistry.Status"}],"anonymous":false},{"type":"error","name":"FactoryNotAllowed","inputs":[{"name":"factory","type":"address","internalType":"address"}]},{"type":"error","name":"InvalidFundType","inputs":[]},{"type":"error","name":"InvalidLimit","inputs":[]},{"type":"error","name":"InvalidStatus","inputs":[]},{"type":"error","name":"ManagerAlreadyMapped","inputs":[{"name":"manager","type":"address","internalType":"address"}]},{"type":"error","name":"NotGovernance","inputs":[]},{"type":"error","name":"ProductAlreadyRegistered","inputs":[{"name":"fund","type":"address","internalType":"address"}]},{"type":"error","name":"ProductNotRegistered","inputs":[{"name":"fund","type":"address","internalType":"address"}]},{"type":"error","name":"ZeroAddress","inputs":[]}],"bytecode":{"object":"0x608034608357601f61144138819003918201601f19168301916001600160401b03831184841017608757808492602094604052833981010312608357516001600160a01b0381169081900360835780156074575f80546001600160a01b0319169190911790556040516113a5908161009c8239f35b63d92e233d60e01b5f5260045ffd5b5f80fd5b634e487b7160e01b5f52604160045260245ffdfe6080806040526004361015610012575f80fd5b5f3560e01c90816314afd79e1461106157508063162119851461101e5780631a6ceef014610fe65780631c26056514610ec2578063278e07ce14610db257806336171ef014610d5f5780633b5bc3a714610d275780635aa6e67514610d005780636082b76d14610ba4578063645b8b1b14610b6257806371f9621114610b1f57806374022a21146109c35780637df99031146105705780637f0e5c3f146104e35780637f41826b146104a05780637fd29192146104735780639095fc0f1461042f5780639f8a13d7146103d3578063c52191c414610396578063d38bfff414610325578063d69fc9aa146101b0578063e221f6571461015d5763fdc48b9114610119575f80fd5b34610159576020366003190112610159576001600160a01b0361013a6110a3565b165f526002602052602060018060a01b0360405f205416604051908152f35b5f80fd5b34610159576040366003190112610159576001600160a01b0361017e6110a3565b165f526003602052602061019760243560405f2061130e565b905460405160039290921b1c6001600160a01b03168152f35b34610159576060366003190112610159576101c96110a3565b6001600160a01b03165f90815260036020526040902080546024359060443581831080159061031d575b61030e57610201908361134b565b90808211610306575b508181039081116102f25761021e81611358565b9261022c60405194856111ba565b81845261023882611358565b602085019390601f19013685375f5b83811061029b578486604051918291602083019060208452518091526040830191905f5b818110610279575050500390f35b82516001600160a01b031684528594506020938401939092019160010161026b565b6102ae6102a8828461134b565b8461130e565b9054875160039290921b1c6001600160a01b031691908110156102de5760019160208260051b8901015201610247565b634e487b7160e01b5f52603260045260245ffd5b634e487b7160e01b5f52601160045260245ffd5b90508361020a565b63e55fb50960e01b5f5260045ffd5b5080156101f3565b346101595760203660031901126101595761033e6110a3565b5f546001600160a01b03163303610387576001600160a01b03168015610378576bffffffffffffffffffffffff60a01b5f5416175f555f80f35b63d92e233d60e01b5f5260045ffd5b632d5be4cb60e21b5f5260045ffd5b34610159576020366003190112610159576001600160a01b036103b76110a3565b165f526006602052602060ff60405f2054166040519015158152f35b34610159576020366003190112610159576001600160a01b036103f46110a3565b165f52600160205260ff60405f205416600481101561041b57602090600160405191148152f35b634e487b7160e01b5f52602160045260245ffd5b34610159576020366003190112610159576001600160a01b036104506110a3565b165f52600160205260206001600160401b03600460405f20015416604051908152f35b346101595760203660031901126101595760206104966104916110a3565b611323565b6040519015158152f35b34610159576020366003190112610159576001600160a01b036104c16110a3565b165f526001602052602060018060a01b0360405f205460101c16604051908152f35b34610159576040366003190112610159576104fc6110a3565b60243590811515809203610159575f546001600160a01b03163303610387576001600160a01b03169081156103785760207fde38ba962bfc2126833005c0f6f7ef48ebd608492260d9a0a196b8d3b100956291835f526006825260405f2060ff1981541660ff8316179055604051908152a2005b346101595760c0366003190112610159576105896110a3565b602435906002821015610159576044356001600160a01b0381169190829003610159576064356001600160a01b0381169390849003610159576084356001600160a01b03811691908290036101595760a4356001600160401b038111610159576105f79036906004016110ea565b929092335f52600660205260ff60405f205416156109b0576001600160a01b0385169485156103785786156103785787156103785782156103785761063b90611323565b61099d5782151580610992575b610983575f868152600260205260409020546001600160a01b0316610970576040516106738161119f565b6001815260208101906106868583611302565b60408101888152606082018a815260808301908682526001600160401b0386116108e257604051926106c2601f8801601f1916602001856111ba565b86845236878b011161015957868a60208601375f6020888601015260a0850193845260c08501956001600160401b03421687528b5f52600160205260405f209551600481101561041b5761071690876112ea565b5190600282101561041b5785549051610100600160b01b031990911660089290921b61ff00169190911760109190911b62010000600160b01b0316178455516001840180546001600160a01b03199081166001600160a01b03938416179091559151600285018054909316911617905551805160038301916001600160401b0382116108e2576107b0826107aa8554611167565b8561127b565b602090601f831160011461090157826001600160401b039593600495936107ec935f926108f6575b50508160011b915f199060031b1c19161790565b90555b019151166001600160401b0319825416179055855f52600260205260405f20856bffffffffffffffffffffffff60a01b825416179055815f52600360205260405f2093845491680100000000000000008310156108e25761087a837f1eb3737a0cd7dc4cb14d9323230c7fee101ca6cec34c4abaf89bdbf0f8bc1fb19760016108dd9601815561130e565b81549060031b9089821b9160018060a01b03901b1916179055835f52600360205260405f2054845f52600460205260405f20885f5260205260405f20556108cc604051958695865260208601906110b9565b6060604085015260608401916112ca565b0390a4005b634e487b7160e01b5f52604160045260245ffd5b015190508f806107d8565b90601f19831691845f52815f20925f5b81811061095857509260019285926001600160401b0398966004989610610940575b505050811b0190556107ef565b01515f1960f88460031b161c191690558e8080610933565b92936020600181928786015181550195019301610911565b85631da2742960e31b5f5260045260245ffd5b631be81c4560e31b5f5260045ffd5b506001831415610648565b846360551bef60e11b5f5260045260245ffd5b6318f26acf60e11b5f523360045260245ffd5b34610159576020366003190112610159576109dc6110a3565b5f60c06040516109eb8161119f565b828152826020820152826040820152826060820152826080820152606060a0820152015260018060a01b03165f52600160205260405f20604051610a2e8161119f565b815460ff811692600484101561041b57610b136001600160401b0391610ad39585526020850193610a6560ff8260081c1686611302565b60101c6001600160a01b039081166040870190815260018301548216606088019081526002840154909216608088019081529190610ade866004610aab600388016111db565b9660a08c019788520154169760c08a019889526040519a8b9a60208c5260208c01905161115a565b5160408a01906110b9565b516001600160a01b03908116606089015290518116608088015290511660a08601525160e060c08601526101008501906110c6565b91511660e08301520390f35b34610159576020366003190112610159576001600160a01b03610b406110a3565b165f526001602052602060018060a01b03600160405f20015416604051908152f35b34610159576020366003190112610159576001600160a01b03610b836110a3565b165f526001602052602060ff60405f205416610ba2604051809261115a565bf35b3461015957610bb236611117565b5f549092906001600160a01b03163303610387576001600160a01b031690811561037857815f52600560205260405f20926001600160401b0381116108e257610c0581610bff8654611167565b8661127b565b5f93601f8211600114610c7e57610c5482807f9ec57a1b224a2d6ce558bf6eb9ece93ef208d24f2576e90ae54d63967039e00696975f91610c73575b508160011b915f199060031b1c19161790565b90555b610c6e6040519283926020845260208401916112ca565b0390a2005b905085013588610c41565b601f19821694815f5260205f20905f5b878110610ce85750837f9ec57a1b224a2d6ce558bf6eb9ece93ef208d24f2576e90ae54d63967039e006969710610ccf575b5050600182811b019055610c57565b8401355f19600385901b60f8161c191690558580610cc0565b90916020600181928589013581550193019101610c8e565b34610159575f366003190112610159575f546040516001600160a01b039091168152602090f35b34610159576020366003190112610159576001600160a01b03610d486110a3565b165f526003602052602060405f2054604051908152f35b34610159576020366003190112610159576001600160a01b03610d806110a3565b165f526001602052610dae610d9a600360405f20016111db565b6040519182916020835260208301906110c6565b0390f35b3461015957604036600319011261015957610dcb6110a3565b6024356004811015610159575f546001600160a01b03163303610387576001600160a01b03821691821561037857610e0290611323565b15610eaf5760018114155f81610ea2575b81610e91575b50610e825760407ff3f35c5b2b5db87dd5dd5ae188e26617c76d4fbb16e67cab30734f3fb387290e91835f526001602052610e7f60ff835f20541691855f526001602052610e6981855f206112ea565b610e758451809461115a565b602083019061115a565ba2005b6307a92f1960e51b5f5260045ffd5b905061041b57600381141583610e19565b505060028114155f610e13565b5063021b9be360e61b5f5260045260245ffd5b3461015957610ed036611117565b5f54909291906001600160a01b03163303610387576001600160a01b03821691821561037857610eff90611323565b15610eaf57815f526001602052600360405f2001926001600160401b0381116108e257610f3081610bff8654611167565b5f93601f8211600114610f7e57610c5482807fe33c1d1598d3f5a87627480510c5ba7d82272842a317033d1ad569d6e9ab5c2296975f91610c7357508160011b915f199060031b1c19161790565b601f19821694815f5260205f20905f5b878110610fce5750837fe33c1d1598d3f5a87627480510c5ba7d82272842a317033d1ad569d6e9ab5c22969710610ccf575050600182811b019055610c57565b90916020600181928589013581550193019101610f8e565b34610159576020366003190112610159576001600160a01b036110076110a3565b165f526005602052610dae610d9a60405f206111db565b34610159576020366003190112610159576001600160a01b0361103f6110a3565b165f526001602052602060ff60405f205460081c16610ba260405180926110b9565b34610159576020366003190112610159576020906001600160a01b036110856110a3565b165f9081526001835260409020600201546001600160a01b03168152f35b600435906001600160a01b038216820361015957565b90600282101561041b5752565b805180835260209291819084018484015e5f828201840152601f01601f1916010190565b9181601f84011215610159578235916001600160401b038311610159576020838186019501011161015957565b906040600319830112610159576004356001600160a01b03811681036101595791602435906001600160401b03821161015957611156916004016110ea565b9091565b90600482101561041b5752565b90600182811c92168015611195575b602083101461118157565b634e487b7160e01b5f52602260045260245ffd5b91607f1691611176565b60e081019081106001600160401b038211176108e257604052565b90601f801991011681019081106001600160401b038211176108e257604052565b9060405191825f8254926111ee84611167565b80845293600181169081156112595750600114611215575b50611213925003836111ba565b565b90505f9291925260205f20905f915b81831061123d575050906020611213928201015f611206565b6020919350806001915483858901015201910190918492611224565b90506020925061121394915060ff191682840152151560051b8201015f611206565b601f821161128857505050565b5f5260205f20906020601f840160051c830193106112c0575b601f0160051c01905b8181106112b5575050565b5f81556001016112aa565b90915081906112a1565b908060209392818452848401375f828201840152601f01601f1916010190565b90600481101561041b5760ff80198354169116179055565b600282101561041b5752565b80548210156102de575f5260205f2001905f90565b6001600160a01b03165f9081526001602052604090205460ff16600481101561041b57151590565b919082018092116102f257565b6001600160401b0381116108e25760051b6020019056fea2646970667358221220e5b1e26e55e9ebaf5ce8a614611aac0b9269b83c6ae515db4fe82dfdd4cfd23b64736f6c634300081e0033","linkReferences":{}},"methodIdentifiers":{"assetOf(address)":"71f96211","createdAt(address)":"9095fc0f","fundByManager(address)":"fdc48b91","fundByOwnerAt(address,uint256)":"e221f657","fundCountByOwner(address)":"3b5bc3a7","fundType(address)":"16211985","fundsByOwner(address,uint256,uint256)":"d69fc9aa","getProductInfo(address)":"74022a21","governance()":"5aa6e675","isActive(address)":"9f8a13d7","isFactoryAllowed(address)":"c52191c4","isProduct(address)":"7fd29192","managerOf(address)":"7f41826b","metadataURI(address)":"36171ef0","ownerOf(address)":"14afd79e","ownerURI(address)":"1a6ceef0","registerProduct(address,uint8,address,address,address,string)":"7df99031","setFactoryAllowed(address,bool)":"7f0e5c3f","setMetadataURI(address,string)":"1c260565","setOwnerURI(address,string)":"6082b76d","setStatus(address,uint8)":"278e07ce","status(address)":"645b8b1b","transferGovernance(address)":"d38bfff4"},"id":54}