{"abi":[{"type":"constructor","inputs":[{"name":"fundImpl","type":"address","internalType":"address"},{"name":"managerImpl","type":"address","internalType":"address"},{"name":"productReg","type":"address","internalType":"address"},{"name":"strategyReg","type":"address","internalType":"address"},{"name":"assetReg","type":"address","internalType":"address"},{"name":"feeCollector_","type":"address","internalType":"address"},{"name":"withdrawalQueue_","type":"address","internalType":"address"},{"name":"riskEngine_","type":"address","internalType":"address"},{"name":"governance_","type":"address","internalType":"address"}],"stateMutability":"nonpayable"},{"type":"function","name":"assetRegistry","inputs":[],"outputs":[{"name":"","type":"address","internalType":"address"}],"stateMutability":"view"},{"type":"function","name":"createProduct","inputs":[{"name":"p","type":"tuple","internalType":"struct IProductFactory.CreateParams","components":[{"name":"fundType","type":"uint8","internalType":"enum IProductFactory.FundType"},{"name":"asset","type":"address","internalType":"address"},{"name":"fundMetadataURI","type":"string","internalType":"string"},{"name":"bufferBps","type":"uint16","internalType":"uint16"},{"name":"mgmtFeeBps","type":"uint16","internalType":"uint16"},{"name":"perfFeeBps","type":"uint16","internalType":"uint16"},{"name":"managerFeeRecipient","type":"address","internalType":"address"},{"name":"strategyImplementations","type":"address[]","internalType":"address[]"},{"name":"weightsBps","type":"uint16[]","internalType":"uint16[]"}]}],"outputs":[{"name":"fund","type":"address","internalType":"address"},{"name":"manager","type":"address","internalType":"address"},{"name":"strategyInstances","type":"address[]","internalType":"address[]"}],"stateMutability":"nonpayable"},{"type":"function","name":"feeCollector","inputs":[],"outputs":[{"name":"","type":"address","internalType":"address"}],"stateMutability":"view"},{"type":"function","name":"fundImplementation","inputs":[],"outputs":[{"name":"","type":"address","internalType":"address"}],"stateMutability":"view"},{"type":"function","name":"governance","inputs":[],"outputs":[{"name":"","type":"address","internalType":"address"}],"stateMutability":"view"},{"type":"function","name":"managerImplementation","inputs":[],"outputs":[{"name":"","type":"address","internalType":"address"}],"stateMutability":"view"},{"type":"function","name":"productRegistry","inputs":[],"outputs":[{"name":"","type":"address","internalType":"address"}],"stateMutability":"view"},{"type":"function","name":"riskEngine","inputs":[],"outputs":[{"name":"","type":"address","internalType":"address"}],"stateMutability":"view"},{"type":"function","name":"setDefaults","inputs":[{"name":"feeCollector_","type":"address","internalType":"address"},{"name":"withdrawalQueue_","type":"address","internalType":"address"}],"outputs":[],"stateMutability":"nonpayable"},{"type":"function","name":"setRegistries","inputs":[{"name":"productRegistry_","type":"address","internalType":"address"},{"name":"strategyRegistry_","type":"address","internalType":"address"},{"name":"assetRegistry_","type":"address","internalType":"address"}],"outputs":[],"stateMutability":"nonpayable"},{"type":"function","name":"setRiskEngine","inputs":[{"name":"riskEngine_","type":"address","internalType":"address"}],"outputs":[],"stateMutability":"nonpayable"},{"type":"function","name":"strategyRegistry","inputs":[],"outputs":[{"name":"","type":"address","internalType":"address"}],"stateMutability":"view"},{"type":"function","name":"transferGovernance","inputs":[{"name":"newGovernance","type":"address","internalType":"address"}],"outputs":[],"stateMutability":"nonpayable"},{"type":"function","name":"withdrawalQueue","inputs":[],"outputs":[{"name":"","type":"address","internalType":"address"}],"stateMutability":"view"},{"type":"event","name":"DefaultsUpdated","inputs":[{"name":"feeCollector","type":"address","indexed":false,"internalType":"address"},{"name":"withdrawalQueue","type":"address","indexed":false,"internalType":"address"}],"anonymous":false},{"type":"event","name":"FactoryGovernanceUpdated","inputs":[{"name":"oldGovernance","type":"address","indexed":true,"internalType":"address"},{"name":"newGovernance","type":"address","indexed":true,"internalType":"address"}],"anonymous":false},{"type":"event","name":"ProductAllocationConfigured","inputs":[{"name":"manager","type":"address","indexed":true,"internalType":"address"},{"name":"strategyImplementations","type":"address[]","indexed":false,"internalType":"address[]"},{"name":"weightsBps","type":"uint16[]","indexed":false,"internalType":"uint16[]"}],"anonymous":false},{"type":"event","name":"ProductCreated","inputs":[{"name":"fund","type":"address","indexed":true,"internalType":"address"},{"name":"manager","type":"address","indexed":true,"internalType":"address"},{"name":"creator","type":"address","indexed":true,"internalType":"address"},{"name":"fundType","type":"uint8","indexed":false,"internalType":"uint8"},{"name":"asset","type":"address","indexed":false,"internalType":"address"},{"name":"productOwner","type":"address","indexed":false,"internalType":"address"},{"name":"feeCollector","type":"address","indexed":false,"internalType":"address"},{"name":"withdrawalQueue","type":"address","indexed":false,"internalType":"address"}],"anonymous":false},{"type":"event","name":"RegistriesUpdated","inputs":[{"name":"productRegistry","type":"address","indexed":false,"internalType":"address"},{"name":"strategyRegistry","type":"address","indexed":false,"internalType":"address"},{"name":"assetRegistry","type":"address","indexed":false,"internalType":"address"}],"anonymous":false},{"type":"event","name":"RiskEngineUpdated","inputs":[{"name":"newRiskEngine","type":"address","indexed":true,"internalType":"address"}],"anonymous":false},{"type":"error","name":"AssetNotApproved","inputs":[{"name":"asset","type":"address","internalType":"address"}]},{"type":"error","name":"FailedDeployment","inputs":[]},{"type":"error","name":"InsufficientBalance","inputs":[{"name":"balance","type":"uint256","internalType":"uint256"},{"name":"needed","type":"uint256","internalType":"uint256"}]},{"type":"error","name":"InvalidBps","inputs":[]},{"type":"error","name":"InvalidFundType","inputs":[]},{"type":"error","name":"InvalidWeights","inputs":[]},{"type":"error","name":"LengthMismatch","inputs":[]},{"type":"error","name":"NotGovernance","inputs":[]},{"type":"error","name":"StrategyNotActive","inputs":[{"name":"implementation","type":"address","internalType":"address"}]},{"type":"error","name":"StrategyNotSupported","inputs":[{"name":"implementation","type":"address","internalType":"address"},{"name":"asset","type":"address","internalType":"address"}]},{"type":"error","name":"ZeroAddress","inputs":[]},{"type":"error","name":"ZeroWeight","inputs":[{"name":"index","type":"uint256","internalType":"uint256"}]}],"bytecode":{"object":"0x60c03461023e57601f6114cd38819003918201601f19168301916001600160401b03831184841017610242578084926101209460405283398101031261023e5761004881610256565b9061005560208201610256565b61006160408301610256565b61006d60608401610256565b61007960808501610256565b9061008660a08601610256565b9261009360c08701610256565b946100ad6101006100a660e08a01610256565b9801610256565b976001600160a01b03811615801561022d575b801561021c575b801561020b575b80156101fa575b80156101e9575b80156101d8575b80156101c7575b80156101b6575b6101a75760805260a052600180546001600160a01b03199081166001600160a01b039384161790915560028054821693831693909317909255600380548316938216939093179092556004805482169383169390931790925560058054831693821693909317909255600680548216938316939093179092555f80549092169216919091179055604051611262908161026b823960805181818161050d0152610ff5015260a0518181816101de01526104e30152f35b63d92e233d60e01b5f5260045ffd5b506001600160a01b038916156100f1565b506001600160a01b038816156100ea565b506001600160a01b038716156100e3565b506001600160a01b038616156100dc565b506001600160a01b038516156100d5565b506001600160a01b038416156100ce565b506001600160a01b038316156100c7565b506001600160a01b038216156100c0565b5f80fd5b634e487b7160e01b5f52604160045260245ffd5b51906001600160a01b038216820361023e5756fe6080806040526004361015610012575f80fd5b5f905f3560e01c9081630b30767414610fe3575080633123f36014610f2f57806332d9365214610e4d57806337d5fe9914610e255780633c25584c146103175780635aa6e675146102f057806361fc63d11461025f57806392b888ae14610236578063979d7e861461020d5780639f4a5337146101c8578063c415b95c1461019f578063d080bf2714610176578063d38bfff4146100e35763fff218c3146100b8575f80fd5b346100e057806003193601126100e0576001546040516001600160a01b039091168152602090f35b80fd5b50346100e05760203660031901126100e0576100fd611024565b8154906001600160a01b0382169033829003610167576001600160a01b0316918215610158576001600160a01b031916821783557f4840b96c7d6dc381441963f848cf7ef5d73fe6e5e5a6db91e99d91f3f7218ab78380a380f35b63d92e233d60e01b8452600484fd5b632d5be4cb60e21b8452600484fd5b50346100e057806003193601126100e0576002546040516001600160a01b039091168152602090f35b50346100e057806003193601126100e0576004546040516001600160a01b039091168152602090f35b50346100e057806003193601126100e0576040517f00000000000000000000000000000000000000000000000000000000000000006001600160a01b03168152602090f35b50346100e057806003193601126100e0576003546040516001600160a01b039091168152602090f35b50346100e057806003193601126100e0576006546040516001600160a01b039091168152602090f35b50346100e05760203660031901126100e057610279611024565b81546001600160a01b031633036102e1576001600160a01b031680156102d257600680546001600160a01b031916821790557f3189d17f1515f1f01d5c724143a9b4e2a4d272e116d8aaf6750dea4f19887a7d8280a280f35b63d92e233d60e01b8252600482fd5b632d5be4cb60e21b8252600482fd5b50346100e057806003193601126100e057546040516001600160a01b039091168152602090f35b5034610b79576020366003190112610b795767ffffffffffffffff60043511610b795761012060043536036003190112610b79576001600160a01b0361036160043560240161106e565b1615610e16576001600160a01b0361037d60043560c40161106e565b1615610e165761271061ffff610397606460043501611082565b1611610deb5761271061ffff6103b1608460043501611082565b16118015610dfa575b610deb576103d260e460043501600435600401611091565b90506103e961010460043501600435600401611091565b90508103610ddc578015610d2957600260043560040135101580610b795761041660043560040135611050565b60048035013515918215610dad575f546001600160a01b03163303610d9e575b5f805b828210610d3857612710915003610d29576003546001600160a01b0316602061046660043560240161106e565b60405163673448dd60e01b81526001600160a01b03909116600482015291829060249082905afa908115610b6e575f91610d0a575b5015610cdc576002546001600160a01b0316905f5b818110610b8357505050610b79576104cd60043560040135611050565b15610b7d575f546001600160a01b03165b6105077f00000000000000000000000000000000000000000000000000000000000000006111c9565b906105317f00000000000000000000000000000000000000000000000000000000000000006111c9565b6006549091906001600160a01b031661054e60043560240161106e565b6002546001600160a01b03908116919086163b15610b795760405163cc2a9a5b60e01b81526001600160a01b03868116600483015260248201949094529083166044820152838316606482015260848101919091523060a4820152905f90829060c4908290849089165af18015610b6e57610b59575b506105d360246004350161106e565b6105e260043560040135611050565b6105f460ff6004356004013516611050565b610602606460043501611082565b610610608460043501611082565b61061e60a460043501611082565b61062c60c46004350161106e565b906040519283606081011067ffffffffffffffff606086011117610b455760608401604090815261ffff9182168552911660208401526001600160a01b0391821690830152600454600554821693908216929187163b15610b415760405163382b832560e21b81526001600160a01b0395861660048083019190915295891660248201529461ffff91906106c6908035013560ff16611050565b60ff6004356004013516604487015216606485015261ffff815116608485015261ffff60208201511660a4850152604060018060a01b039101511660c484015260e48301526101048201528481610124818360018060a01b0388165af18015610b3657610b21575b509261077e92938161074a60e460043501600435600401611091565b9061076061010460043501600435600401611091565b60405163243db70d60e21b8152988994859491939160048601611139565b0381836001600160a01b038a165af1938415610b16578294610a4d575b506108077f7d29e115e753ebc0884a0f7389212195cf8b0ade0d0f6259fe6849843384ccba6107d460e460043501600435600401611091565b6107ec61010460049593953501600435600401611091565b6040516001600160a01b038c16969094859490939185611139565b0390a26001546001600160a01b0316610824600480350135611050565b61083660ff6004356004013516611050565b61084460246004350161106e565b600435604481013590360360221901811215610a4957600435019160048301359267ffffffffffffffff8411610a4557602401928036038413610a4557813b15610a455790888660e48985839796604051998a9889978895637df9903160e01b875260018060a01b031660048701526108c560ff6004356004013516611050565b60048035013560ff1660248701526001600160a01b03908116604487015290811660648601528c16608485015260c060a485015260c48401829052848401378181018301849052601f01601f191681010301925af18015610a3a57908391610a21575b50949392945061093d60043560040135611050565b61094b60246004350161106e565b600480546005546040805184359094013560ff1684526001600160a01b039485166020850152948416948301949094528216606082015291811660808301523391858216918716907fd8a38a987285b2e48ac356d4170ff73503c7bd7235720f701221ec838f96556b9060a090a4604051938493606085019160018060a01b0316855260018060a01b031660208501526060604085015282518091526020608085019301915b8181106109ff575050500390f35b82516001600160a01b03168452859450602093840193909201916001016109f1565b81610a2b916110eb565b610a3657815f610928565b5080fd5b6040513d85823e3d90fd5b8580fd5b8480fd5b9093503d8083833e610a5f81836110eb565b810190602081830312610b0e5780519067ffffffffffffffff8211610b12570181601f82011215610b0e5780519167ffffffffffffffff8311610afa578260051b9160405193610ab260208501866110eb565b8452602080850193820101918211610a4957602001915b818310610ada57505050925f61079b565b82516001600160a01b0381168103610a4557815260209283019201610ac9565b634e487b7160e01b84526041600452602484fd5b8280fd5b8380fd5b6040513d84823e3d90fd5b610b2c8580926110eb565b610b12575f61072e565b6040513d87823e3d90fd5b8880fd5b634e487b7160e01b8a52604160045260248afd5b610b669194505f906110eb565b5f925f6105c4565b6040513d5f823e3d90fd5b5f80fd5b336104de565b610ba9610ba482610b9e60e460043501600435600401611091565b906110c7565b61106e565b604051639f8a13d760e01b81526001600160a01b038216600482018190529190602081602481895afa908115610b6e575f91610cbe575b5015610cab576020610c2a91610bfa60246004350161106e565b604051632aa2d3f760e21b81526001600160a01b0392831660048201529116602482015291829081906044820190565b0381885afa908115610b6e575f91610c7d575b5015610c4c57506001016104b0565b610c5a60246004350161106e565b631fd6553760e21b5f9081526004929092526001600160a01b0316602452604490fd5b610c9e915060203d8111610ca4575b610c9681836110eb565b810190611121565b5f610c3d565b503d610c8c565b5063e5c0758760e01b5f5260045260245ffd5b610cd6915060203d8111610ca457610c9681836110eb565b5f610be0565b610cea60246004350161106e565b63a6e7da2360e01b5f9081526001600160a01b0391909116600452602490fd5b610d23915060203d602011610ca457610c9681836110eb565b5f61049b565b63108cef9d60e31b5f5260045ffd5b61ffff610d5c610d5784610b9e61010460043501600435600401611091565b611082565b168015610d8b578101809111610d7757600190910190610439565b634e487b7160e01b5f52601160045260245ffd5b826320197f2360e21b5f5260045260245ffd5b632d5be4cb60e21b5f5260045ffd5b5f9150610dbe600480350135611050565b600160043560040135031561043657631be81c4560e31b5f5260045ffd5b631fec674760e31b5f5260045ffd5b63c6cc5d7f60e01b5f5260045ffd5b5061271061ffff610e0f60a460043501611082565b16116103ba565b63d92e233d60e01b5f5260045ffd5b34610b79575f366003190112610b79576005546040516001600160a01b039091168152602090f35b34610b79576060366003190112610b7957610e66611024565b610e6e61103a565b6044356001600160a01b0381169290839003610b79575f546001600160a01b03163303610d9e576001600160a01b0316908115610e16576001600160a01b0316908115610e16578215610e16577f7d0e095a647df85a97e599720d80b50880b2ecc31e150feed19d4cf7efb9ba3392606092826001600160601b0360a01b6001541617600155806001600160601b0360a01b6002541617600255816001600160601b0360a01b600354161760035560405192835260208301526040820152a1005b34610b79576040366003190112610b7957610f48611024565b610f5061103a565b5f546001600160a01b03163303610d9e576001600160a01b038216918215610e16576001600160a01b0382168015610e1657600480546001600160a01b03199081169590951790556005805490941617909255604080516001600160a01b0393841681529190921660208201527fe0ea420e98c345291ecc81ad21d9995358aa90813a9599e1518ae7668f349c889190a1005b34610b79575f366003190112610b79577f00000000000000000000000000000000000000000000000000000000000000006001600160a01b03168152602090f35b600435906001600160a01b0382168203610b7957565b602435906001600160a01b0382168203610b7957565b6002111561105a57565b634e487b7160e01b5f52602160045260245ffd5b356001600160a01b0381168103610b795790565b3561ffff81168103610b795790565b903590601e1981360301821215610b79570180359067ffffffffffffffff8211610b7957602001918160051b36038313610b7957565b91908110156110d75760051b0190565b634e487b7160e01b5f52603260045260245ffd5b90601f8019910116810190811067ffffffffffffffff82111761110d57604052565b634e487b7160e01b5f52604160045260245ffd5b90816020910312610b7957518015158103610b795790565b939293826040820160408352526060810191925f905b80821061119e5750508082036020918201528382520192915f91505b8082106111785750505090565b90919283359061ffff8216809203610b795760208160019382935201940192019061116b565b90919284359060018060a01b038216809203610b79579081526020948501940192916001019061114f565b6e5af43d82803e903d91602b57fd5bf390763d602d80600a3d3981f3363d3d373d3d3d363d7300000062ffffff8260881c16175f5260781b17602052603760095ff0906001600160a01b0382161561121d57565b63b06ebf3d60e01b5f5260045ffdfea2646970667358221220cbd1bb3a412df40562243da0cd27bea7b33a29ea5ab323450ac99e9fc4f3713d64736f6c634300081e0033","linkReferences":{}},"methodIdentifiers":{"assetRegistry()":"979d7e86","createProduct((uint8,address,string,uint16,uint16,uint16,address,address[],uint16[]))":"3c25584c","feeCollector()":"c415b95c","fundImplementation()":"0b307674","governance()":"5aa6e675","managerImplementation()":"9f4a5337","productRegistry()":"fff218c3","riskEngine()":"92b888ae","setDefaults(address,address)":"3123f360","setRegistries(address,address,address)":"32d93652","setRiskEngine(address)":"61fc63d1","strategyRegistry()":"d080bf27","transferGovernance(address)":"d38bfff4","withdrawalQueue()":"37d5fe99"},"id":35}