{"abi":[{"type":"constructor","inputs":[{"name":"governance_","type":"address","internalType":"address"}],"stateMutability":"nonpayable"},{"type":"function","name":"approveStrategy","inputs":[{"name":"implementation","type":"address","internalType":"address"},{"name":"info","type":"tuple","internalType":"struct IStrategyRegistry.StrategyInfo","components":[{"name":"status","type":"uint8","internalType":"enum IStrategyRegistry.Status"},{"name":"riskTier","type":"uint8","internalType":"uint8"},{"name":"riskScore","type":"uint32","internalType":"uint32"},{"name":"isLiquid","type":"bool","internalType":"bool"},{"name":"metadataURI","type":"string","internalType":"string"},{"name":"approvedAt","type":"uint64","internalType":"uint64"}]}],"outputs":[],"stateMutability":"nonpayable"},{"type":"function","name":"approvedAt","inputs":[{"name":"implementation","type":"address","internalType":"address"}],"outputs":[{"name":"","type":"uint64","internalType":"uint64"}],"stateMutability":"view"},{"type":"function","name":"getStrategyInfo","inputs":[{"name":"implementation","type":"address","internalType":"address"}],"outputs":[{"name":"","type":"tuple","internalType":"struct IStrategyRegistry.StrategyInfo","components":[{"name":"status","type":"uint8","internalType":"enum IStrategyRegistry.Status"},{"name":"riskTier","type":"uint8","internalType":"uint8"},{"name":"riskScore","type":"uint32","internalType":"uint32"},{"name":"isLiquid","type":"bool","internalType":"bool"},{"name":"metadataURI","type":"string","internalType":"string"},{"name":"approvedAt","type":"uint64","internalType":"uint64"}]}],"stateMutability":"view"},{"type":"function","name":"governance","inputs":[],"outputs":[{"name":"","type":"address","internalType":"address"}],"stateMutability":"view"},{"type":"function","name":"isActive","inputs":[{"name":"implementation","type":"address","internalType":"address"}],"outputs":[{"name":"","type":"bool","internalType":"bool"}],"stateMutability":"view"},{"type":"function","name":"isApproved","inputs":[{"name":"implementation","type":"address","internalType":"address"}],"outputs":[{"name":"","type":"bool","internalType":"bool"}],"stateMutability":"view"},{"type":"function","name":"isLiquid","inputs":[{"name":"implementation","type":"address","internalType":"address"}],"outputs":[{"name":"","type":"bool","internalType":"bool"}],"stateMutability":"view"},{"type":"function","name":"metadataURI","inputs":[{"name":"implementation","type":"address","internalType":"address"}],"outputs":[{"name":"","type":"string","internalType":"string"}],"stateMutability":"view"},{"type":"function","name":"riskScore","inputs":[{"name":"implementation","type":"address","internalType":"address"}],"outputs":[{"name":"","type":"uint32","internalType":"uint32"}],"stateMutability":"view"},{"type":"function","name":"riskTier","inputs":[{"name":"implementation","type":"address","internalType":"address"}],"outputs":[{"name":"","type":"uint8","internalType":"uint8"}],"stateMutability":"view"},{"type":"function","name":"setAssetSupport","inputs":[{"name":"implementation","type":"address","internalType":"address"},{"name":"asset","type":"address","internalType":"address"},{"name":"supported","type":"bool","internalType":"bool"}],"outputs":[],"stateMutability":"nonpayable"},{"type":"function","name":"setMetadataURI","inputs":[{"name":"implementation","type":"address","internalType":"address"},{"name":"newURI","type":"string","internalType":"string"}],"outputs":[],"stateMutability":"nonpayable"},{"type":"function","name":"setRisk","inputs":[{"name":"implementation","type":"address","internalType":"address"},{"name":"newRiskTier","type":"uint8","internalType":"uint8"},{"name":"newRiskScore","type":"uint32","internalType":"uint32"},{"name":"newIsLiquid","type":"bool","internalType":"bool"}],"outputs":[],"stateMutability":"nonpayable"},{"type":"function","name":"setStatus","inputs":[{"name":"implementation","type":"address","internalType":"address"},{"name":"newStatus","type":"uint8","internalType":"enum IStrategyRegistry.Status"}],"outputs":[],"stateMutability":"nonpayable"},{"type":"function","name":"status","inputs":[{"name":"implementation","type":"address","internalType":"address"}],"outputs":[{"name":"","type":"uint8","internalType":"enum IStrategyRegistry.Status"}],"stateMutability":"view"},{"type":"function","name":"supportsAsset","inputs":[{"name":"implementation","type":"address","internalType":"address"},{"name":"asset","type":"address","internalType":"address"}],"outputs":[{"name":"","type":"bool","internalType":"bool"}],"stateMutability":"view"},{"type":"function","name":"transferGovernance","inputs":[{"name":"newGov","type":"address","internalType":"address"}],"outputs":[],"stateMutability":"nonpayable"},{"type":"event","name":"StrategyApproved","inputs":[{"name":"implementation","type":"address","indexed":true,"internalType":"address"},{"name":"approvedAt","type":"uint64","indexed":false,"internalType":"uint64"}],"anonymous":false},{"type":"event","name":"StrategyAssetSupportSet","inputs":[{"name":"implementation","type":"address","indexed":true,"internalType":"address"},{"name":"asset","type":"address","indexed":true,"internalType":"address"},{"name":"supported","type":"bool","indexed":false,"internalType":"bool"}],"anonymous":false},{"type":"event","name":"StrategyMetadataURISet","inputs":[{"name":"implementation","type":"address","indexed":true,"internalType":"address"},{"name":"newURI","type":"string","indexed":false,"internalType":"string"}],"anonymous":false},{"type":"event","name":"StrategyRiskSet","inputs":[{"name":"implementation","type":"address","indexed":true,"internalType":"address"},{"name":"riskTier","type":"uint8","indexed":false,"internalType":"uint8"},{"name":"riskScore","type":"uint32","indexed":false,"internalType":"uint32"},{"name":"isLiquid","type":"bool","indexed":false,"internalType":"bool"}],"anonymous":false},{"type":"event","name":"StrategyStatusSet","inputs":[{"name":"implementation","type":"address","indexed":true,"internalType":"address"},{"name":"oldStatus","type":"uint8","indexed":false,"internalType":"enum IStrategyRegistry.Status"},{"name":"newStatus","type":"uint8","indexed":false,"internalType":"enum IStrategyRegistry.Status"}],"anonymous":false},{"type":"error","name":"InvalidRiskTier","inputs":[]},{"type":"error","name":"InvalidStatus","inputs":[]},{"type":"error","name":"NotGovernance","inputs":[]},{"type":"error","name":"StrategyAlreadyApproved","inputs":[{"name":"implementation","type":"address","internalType":"address"}]},{"type":"error","name":"StrategyNotApproved","inputs":[{"name":"implementation","type":"address","internalType":"address"}]},{"type":"error","name":"ZeroAddress","inputs":[]}],"bytecode":{"object":"0x608034608357601f61122338819003918201601f19168301916001600160401b03831184841017608757808492602094604052833981010312608357516001600160a01b0381169081900360835780156074575f80546001600160a01b031916919091179055604051611187908161009c8239f35b63d92e233d60e01b5f5260045ffd5b5f80fd5b634e487b7160e01b5f52604160045260245ffdfe6080806040526004361015610012575f80fd5b5f3560e01c90816314bbd9d814610e41575080631c26056514610c93578063278e07ce14610ba557806333761f8a146106c457806336171ef014610671578063414363e61461063057806354192ad5146105115780635aa6e675146104ea578063645b8b1b146104a8578063673448dd1461047b578063675ab9821461043b5780639f8a13d7146103df578063aa8b4fdc14610388578063b1a59579146102b9578063b84d93d41461027b578063d38bfff4146102305763ff97ad37146100d7575f80fd5b3461022c57608036600319011261022c576100f0610e81565b60243560ff81169081810361022c576044359063ffffffff8216820361022c5760643592831515840361022c575f546001600160a01b0316330361021d576001600160a01b03851694851561020e57610148906110fe565b156101fb57156101ec575f84815260016020908152604091829020805466ff000000000000961515603081901b9790971666ffffffffffff001990911661ff00600887901b161765ffffffff0000601088901b1617179055815160ff909316835263ffffffff90931692820192909252908101919091527fa089b94b2b14f73558e98fd7be0b975c395f6285b0c355fb56085677fc93a7809080606081015b0390a2005b631e9afce160e01b5f5260045ffd5b8463b6bfb68b60e01b5f5260045260245ffd5b63d92e233d60e01b5f5260045ffd5b632d5be4cb60e21b5f5260045ffd5b5f80fd5b3461022c57602036600319011261022c57610249610e81565b5f54906001600160a01b038216330361021d576001600160a01b031690811561020e576001600160a01b031916175f55005b3461022c57602036600319011261022c576001600160a01b0361029c610e81565b165f526001602052602060ff60405f205460081c16604051908152f35b3461022c57606036600319011261022c576102d2610e81565b6102da610e97565b60443580151580910361022c575f546001600160a01b0316330361021d576001600160a01b03831691821561020e576001600160a01b031692831561020e57610322906110fe565b156103755760207f4d63ecc92c0ea6be3927c75a68602790de3b04c14e84a6d70eb90223bd4ab72091835f526002825260405f20855f52825260405f2060ff1981541660ff8316179055604051908152a3005b5063b6bfb68b60e01b5f5260045260245ffd5b3461022c57604036600319011261022c576103a1610e81565b6103a9610e97565b9060018060a01b03165f52600260205260405f209060018060a01b03165f52602052602060ff60405f2054166040519015158152f35b3461022c57602036600319011261022c576001600160a01b03610400610e81565b165f52600160205260ff60405f205416600481101561042757602090600160405191148152f35b634e487b7160e01b5f52602160045260245ffd5b3461022c57602036600319011261022c576001600160a01b0361045c610e81565b165f526001602052602060ff60405f205460301c166040519015158152f35b3461022c57602036600319011261022c57602061049e610499610e81565b6110fe565b6040519015158152f35b3461022c57602036600319011261022c576001600160a01b036104c9610e81565b165f526001602052602060ff60405f2054166104e86040518092610ed1565bf35b3461022c575f36600319011261022c575f546040516001600160a01b039091168152602090f35b3461022c57602036600319011261022c5761052a610e81565b5f60a060405161053981611016565b82815282602082015282604082015282606082015260606080820152015260018060a01b03165f5260016020526105fc60405f206040519061057a82611016565b6001600160401b0361062482549261059560ff851686611052565b602085019360ff8160081c16855263ffffffff60408701818360101c16815260ff606089019360301c161515835260ff8660026105d46001880161105e565b9660808c019788520154169760a08a019889526040519a8b9a60208c5260208c019051610ed1565b511660408901525116606087015251151560808601525160c060a086015260e0850190610ead565b91511660c08301520390f35b3461022c57602036600319011261022c576001600160a01b03610651610e81565b165f526001602052602063ffffffff60405f205460101c16604051908152f35b3461022c57602036600319011261022c576001600160a01b03610692610e81565b165f5260016020526106c06106ac600160405f200161105e565b604051918291602083526020830190610ead565b0390f35b3461022c57604036600319011261022c576106dd610e81565b6024356001600160401b03811161022c5760c0600319823603011261022c575f546001600160a01b0316330361021d576001600160a01b0382161561020e57610725826110fe565b610b8557600481810135101561022c575f60018260040135141580610b74575b80610b60575b610b515760ff61075d60248401610fa4565b16156101ec5761022c5761077360248201610fa4565b604482019061078182610fb2565b9061078e60648501610fc3565b9161079f6084860186600401610fd0565b9160a48701946107ae86611002565b94604051946107bc86611016565b6107ca8a6004013587611052565b60ff602087019216825263ffffffff60408701941684526060860192151583526001600160401b038111610b3d5760405194610810601f8301601f191660200187611031565b818652368282011161022c57815f926020928389013786010152608085019384526001600160401b0360a086019616865260018060a01b038a165f52600160205260405f2094516004811015610427576108d19361089260ff6108b09461087c63ffffffff958b610f8c565b51895461ff001916911660081b61ff0016178855565b51865465ffffffff00001916911660101b65ffffffff000016178555565b51835466ff000000000000191690151560301b66ff00000000000016178355565b518051906001600160401b038211610b3d576108fd826108f46001860154610ede565b60018601610f16565b602090601f8311600114610ac2579261093d836001600160401b039460029461095b9998975f92610ab7575b50508160011b915f199060031b1c19161790565b60018201555b019151166001600160401b0319825416179055611002565b6001600160401b03604051911681527fbc8cc707a54956f92f82fad6a7366a6a1a39e1ca78c111c226345290c2c78abd602060018060a01b03861692a26040515f81526109af602082018460040135610ed1565b6001600160a01b038416907f1add1cb9e804c3f12febd5a034d194149621fb13738352b22898b95b03a745e090604090a27fa089b94b2b14f73558e98fd7be0b975c395f6285b0c355fb56085677fc93a780610a16610a1060248501610fa4565b92610fb2565b610a2260648501610fc3565b6040805160ff95909516855263ffffffff9290921660208501521515908301526001600160a01b03841691606090a2610a616084820182600401610fd0565b9050610a6957005b610a9b8160847f4a265f847e108efe5f8851a74d5e66df08a65b72b2043f13e89bcdce0d3bbc3d930190600401610fd0565b6040516001600160a01b03909416939182916101e79183610f65565b015190508c80610929565b90600184015f52805f20915f5b601f1985168110610b2557508360029361095b989796936001936001600160401b0397601f19811610610b0d575b505050811b016001820155610943565b01515f1960f88460031b161c191690558b8080610afd565b91926020600181928685015181550194019201610acf565b634e487b7160e01b5f52604160045260245ffd5b6307a92f1960e51b5f5260045ffd5b5061022c575f60038260040135141561074b565b50505f600282600401351415610745565b50628675b960e61b5f9081526001600160a01b0391909116600452602490fd5b3461022c57604036600319011261022c57610bbe610e81565b602435600481101561022c575f546001600160a01b0316330361021d576001600160a01b03821691821561020e57610bf5906110fe565b156103755760018114155f81610c86575b81610c75575b50610b515760407f1add1cb9e804c3f12febd5a034d194149621fb13738352b22898b95b03a745e091835f526001602052610c7260ff835f20541691855f526001602052610c5c81855f20610f8c565b610c6884518094610ed1565b6020830190610ed1565ba2005b905061042757600381141583610c0c565b505060028114155f610c06565b3461022c57604036600319011261022c57610cac610e81565b602435906001600160401b03821161022c573660238301121561022c578160040135916001600160401b03831161022c57366024848301011161022c575f546001600160a01b0316330361021d576001600160a01b03821691821561020e57610d14906110fe565b1561037557815f526001602052600160405f200192610d3d81610d378654610ede565b86610f16565b5f93601f8211600114610db157816101e791610d9482602496957f4a265f847e108efe5f8851a74d5e66df08a65b72b2043f13e89bcdce0d3bbc3d98995f91610da4575b508160011b915f199060031b1c19161790565b90555b6040519384930183610f65565b889150870101358a610d81565b601f198216815f5260205f20905f5b818110610e2657509183917f4a265f847e108efe5f8851a74d5e66df08a65b72b2043f13e89bcdce0d3bbc3d9697602496956101e79510610e0b575b5050600182811b019055610d97565b85018601355f19600385901b60f8161c191690558780610dfc565b85880160240135835560209788019760019093019201610dc0565b3461022c57602036600319011261022c576020906001600160a01b03610e65610e81565b165f52600182526001600160401b03600260405f200154168152f35b600435906001600160a01b038216820361022c57565b602435906001600160a01b038216820361022c57565b805180835260209291819084018484015e5f828201840152601f01601f1916010190565b9060048210156104275752565b90600182811c92168015610f0c575b6020831014610ef857565b634e487b7160e01b5f52602260045260245ffd5b91607f1691610eed565b601f8211610f2357505050565b5f5260205f20906020601f840160051c83019310610f5b575b601f0160051c01905b818110610f50575050565b5f8155600101610f45565b9091508190610f3c565b90918060409360208452816020850152848401375f828201840152601f01601f1916010190565b9060048110156104275760ff80198354169116179055565b3560ff8116810361022c5790565b3563ffffffff8116810361022c5790565b35801515810361022c5790565b903590601e198136030182121561022c57018035906001600160401b03821161022c5760200191813603831361022c57565b356001600160401b038116810361022c5790565b60c081019081106001600160401b03821117610b3d57604052565b90601f801991011681019081106001600160401b03821117610b3d57604052565b60048210156104275752565b9060405191825f82549261107184610ede565b80845293600181169081156110dc5750600114611098575b5061109692500383611031565b565b90505f9291925260205f20905f915b8183106110c0575050906020611096928201015f611089565b60209193508060019154838589010152019101909184926110a7565b90506020925061109694915060ff191682840152151560051b8201015f611089565b60018060a01b03165f52600160205260ff60405f205416600481101590816104275760018114918215611144575b821561113757505090565b9091506104275760031490565b506002811491505f61112c56fea26469706673582212201aa0cfc3590b44c9291eb1e1dd2f3dcc221c9599095cfd99ddbe61a713cdbd0664736f6c634300081e0033","linkReferences":{}},"methodIdentifiers":{"approveStrategy(address,(uint8,uint8,uint32,bool,string,uint64))":"33761f8a","approvedAt(address)":"14bbd9d8","getStrategyInfo(address)":"54192ad5","governance()":"5aa6e675","isActive(address)":"9f8a13d7","isApproved(address)":"673448dd","isLiquid(address)":"675ab982","metadataURI(address)":"36171ef0","riskScore(address)":"414363e6","riskTier(address)":"b84d93d4","setAssetSupport(address,address,bool)":"b1a59579","setMetadataURI(address,string)":"1c260565","setRisk(address,uint8,uint32,bool)":"ff97ad37","setStatus(address,uint8)":"278e07ce","status(address)":"645b8b1b","supportsAsset(address,address)":"aa8b4fdc","transferGovernance(address)":"d38bfff4"},"id":55}